:100000000C9434000C9451000C9451000C94510049
:100010000C9451000C9451000C9451000C9451001C
:100020000C9451000C9451000C9451000C9451000C
:100030000C9451000C9451000C9451000C945100FC
:100040000C94BA000C9451000C9451000C94510083
:100050000C9451000C9451000C9451000C945100DC
:100060000C9451000C94510011241FBECFEFD8E026
:10007000DEBFCDBF11E0A0E0B1E0ECEDF3E002C0E7
:1000800005900D92A830B107D9F721E0A8E0B1E0C2
:1000900001C01D92A331B207E1F70E9404010C9444
:1000A000EC010C9400009C012E503109672B09F4DF
:1000B0004FC02630310570F428B1449741E050E03C
:1000C000BA0102C0660F771F8A95E2F7CB01822B37
:1000D00088B908958830910558F49BB121E030E04B
:1000E00001C0220F8A95EAF7892F822B8BB90895D8
:1000F000089786309105E8F595B121E030E001C020
:10010000220F8A95EAF7892F822B85B908958830C6
:10011000910568F44BB121E030E0B90102C0660FEF
:10012000771F8A95E2F7CB0180958423DFCF08976C
:1001300086309105F0F445B121E030E0B90102C00C
:10014000660F771F8A95E2F7CB0180958423DDCF78
:1001500026303105E0F648B1449721E030E0B9019E
:1001600002C0660F771F8A95E2F7CB018095842342
:10017000AFCF08951F920F920FB60F9211242F93B5
:100180003F938F939F93AF93BF9380910F01909173
:100190001001A0911101B091120130910E0123E0E4
:1001A000230F2D3758F50196A11DB11D20930E0187
:1001B00080930F0190931001A0931101B09312014D
:1001C00080910A0190910B01A0910C01B0910D0159
:1001D0000196A11DB11D80930A0190930B01A0937C
:1001E0000C01B0930D01BF91AF919F918F913F9101
:1001F0002F910F900FBE0F901F90189526E8230F98
:100200000296A11DB11DD2CF789484B5826084BDC1
:1002100084B5816084BD85B5826085BD85B581600A
:1002200085BD80916E00816080936E001092810088
:100230008091810082608093810080918100816043
:100240008093810080918000816080938000809104
:10025000B10084608093B1008091B0008160809390
:10026000B00080917A00846080937A0080917A0057
:10027000826080937A0080917A00816080937A0016
:1002800080917A00806880937A001092C10083E0A8
:1002900090E09093090180930801539A61E070E027
:1002A00080910801909109010E9453002FEF83E192
:1002B00095E0215080409040E1F700C0000086E0CA
:1002C000E82E81E0F82E01E010E090E0C92E90E0E9
:1002D000D92EC0E0D1E0809108019091090170E031
:1002E00060E0EC16FD06D1F10E9453008FE991E029
:1002F0000197F1F700C00000B12CA12C6881062EF7
:10030000000C770BC8010A2C02C0880F991F0A94B1
:10031000E2F76823792380910801909109010E94F6
:1003200053008FE991E00197F1F700C000009FEFC3
:10033000A91AB90A28E0A216B10401F761E070E039
:1003400080910801909109010E9453008FEA9FE07B
:100350000197F1F700C000002196BDCF0E94530025
:100360008FE991E00197F1F700C00000D0E0C0E014
:10037000B8010C2E02C0660F771F0A94E2F76D7069
:10038000772780910801909109010E9453008FE91D
:1003900091E00197F1F700C000002196C830D10527
:1003A00039F761E070E080910801909109010E94A5
:1003B00053008FE991E00197F1F700C000008FE34F
:1003C0009CE90197F1F700C00000C114D10409F4C1
:0C03D00080CF0E9400007DCFF894FFCF8A
:0803DC00416E616D61790000C2
:107E0000112484B714BE81FFF0D085E080938100F7
:107E100082E08093C00088E18093C10086E0809377
:107E2000C20080E18093C4008EE0C9D0259A86E02C
:107E300020E33CEF91E0309385002093840096BBD3
:107E4000B09BFECF1D9AA8958150A9F7CC24DD24C4
:107E500088248394B5E0AB2EA1E19A2EF3E0BF2EE7
:107E6000A2D0813461F49FD0082FAFD0023811F036
:107E7000013811F484E001C083E08DD089C08234E0
:107E800011F484E103C0853419F485E0A6D080C0E4
:107E9000853579F488D0E82EFF2485D0082F10E0AE
:107EA000102F00270E291F29000F111F8ED06801E7
:107EB0006FC0863521F484E090D080E0DECF843638
:107EC00009F040C070D06FD0082F6DD080E0C81688
:107ED00080E7D80618F4F601B7BEE895C0E0D1E017
:107EE00062D089930C17E1F7F0E0CF16F0E7DF06D8
:107EF00018F0F601B7BEE89568D007B600FCFDCFD4
:107F0000A601A0E0B1E02C9130E011968C91119780
:107F100090E0982F8827822B932B1296FA010C0160
:107F200087BEE89511244E5F5F4FF1E0A038BF0790
:107F300051F7F601A7BEE89507B600FCFDCF97BE46
:107F4000E89526C08437B1F42ED02DD0F82E2BD052
:107F50003CD0F601EF2C8F010F5F1F4F84911BD097
:107F6000EA94F801C1F70894C11CD11CFA94CF0C13
:107F7000D11C0EC0853739F428D08EE10CD085E9AC
:107F80000AD08FE07ACF813511F488E018D01DD067
:107F900080E101D065CF982F8091C00085FFFCCF94
:107FA0009093C60008958091C00087FFFCCF809118
:107FB000C00084FD01C0A8958091C6000895E0E648
:107FC000F0E098E1908380830895EDDF803219F02E
:107FD00088E0F5DFFFCF84E1DECF1F93182FE3DFCA
:107FE0001150E9F7F2DF1F91089580E0E8DFEE27F6
:047FF000FF270994CA
:027FFE00040479
:0400000300007E007B
:00000001FF
