:100000000C9434000C9446000C9446000C9446006A
:100010000C9446000C9446000C9446000C94460048
:100020000C9446000C9446000C9446000C94460038
:100030000C9446000C9446000C9446000C94460028
:100040000C946D000C9446000C9446000C944600F1
:100050000C9446000C94B7000C9446000C94460097
:100060000C9446000C94460011241FBECFEFD8E03C
:10007000DEBFCDBF21E0A0E0B1E001C01D92AB30FA
:10008000B207E1F70E94D4000C9400020C94000027
:100090003FB7F8948091050190910601A091070166
:1000A000B091080126B5A89B05C02F3F19F0019615
:1000B000A11DB11D3FBFBA2FA92F982F8827BC01C2
:1000C000CD01620F711D811D911D42E0660F771FEA
:1000D000881F991F4A95D1F708951F920F920FB666
:1000E0000F9211242F933F938F939F93AF93BF93BE
:1000F0008091010190910201A0910301B09104014E
:100100003091000123E0230F2D3758F50196A11DF2
:10011000B11D209300018093010190930201A093EF
:100120000301B09304018091050190910601A09113
:100130000701B09108010196A11DB11D8093050131
:1001400090930601A0930701B0930801BF91AF916E
:100150009F918F913F912F910F900FBE0F901F9005
:10016000189526E8230F0296A11DB11DD2CF1F922C
:100170000F920FB60F9211242F938F939F9320917C
:1001800078008091790090E0982F8827820F911D48
:1001900090930A01809309019F918F912F910F9065
:1001A0000FBE0F901F901895789484B5826084BD1F
:1001B00084B5816084BD85B5826085BD85B581606B
:1001C00085BD80916E00816080936E0010928100E9
:1001D00080918100826080938100809181008160A4
:1001E0008093810080918000816080938000809165
:1001F000B10084608093B1008091B00081608093F1
:10020000B00080917A00846080937A0080917A00B7
:10021000826080937A0080917A00816080937A0076
:1002200080917A00806880937A001092C10078945F
:1002300087E68093C4001092C5008091C100886950
:100240008093C1008091C1008B7F8093C100809119
:10025000C2008F7B8093C2008091C2008F77809311
:10026000C2008091C2008F7E8093C2008091C20044
:100270008F7D8093C2008091C20084608093C20011
:100280008091C20082608093C2008091C200877F0B
:100290008093C20013E60FE622E6722E32E7632E49
:1002A0004DE0542EC0E0D0E080917A0080688093C9
:1002B0007A0080917C008F7D80937C0080917A0011
:1002C000846080937A0080917A008D7F80937A0099
:1002D00080917A008E7F80937A0080917C008F7766
:1002E00080937C0080917C00806480937C0080916E
:1002F0007A00806280937A0080917C008160809394
:100300007C0080917C008D7F80937C0080917C00BC
:10031000846080937C0080917C00877F80937C0048
:1003200080917B00846080937B0080917B008D7F37
:1003300080937B0080917B008E7F80937B007894FC
:1003400080917A00886080937A000E9448006B0157
:100350007C0192E0892E912CA12CB12C0E944800A6
:100360006C197D098E099F09683E734081059105CE
:10037000A8F328EEC20E23E0D21EE11CF11C8A94E1
:1003800089288A288B2829F0812C912C5401839468
:10039000E5CF1093C6008FE39FE10197F1F700C00E
:1003A00000000093C6008FE39FE10197F1F700C0C2
:1003B00000007092C6008FE39FE10197F1F700C043
:1003C00000006092C6008FE39FE10197F1F700C043
:1003D00000005092C6008FE39FE10197F1F700C043
:1003E00000009FEF21EE84E0915020408040E1F733
:1003F00000C00000209709F457CF0E94000054CF9E
:04040000F894FFCF9E
:00000001FF
