:100000000C945C000C946E000C946E000C946E00CA
:100010000C946E000C946E000C946E000C946E00A8
:100020000C946E000C946E000C946E000C946E0098
:100030000C946E000C946E000C946E000C946E0088
:100040000C948C000C946E000C946E000C946E005A
:100050000C946E000C94D6000C946E000C946E0000
:100060000C946E000C946E00000000080002010069
:100070000003040700000000000000000000000072
:10008000250028002B0000000000240027002A0083
:10009000040404040404040402020202020203032E
:1000A0000303030301020408102040800102040836
:1000B000102001020408102011241FBECFEFD8E049
:1000C000DEBFCDBF21E0A0E0B1E001C01D92AD30A8
:1000D000B207E1F70E9446010C94E0020C94000084
:1000E000E9EAF0E02491E5E9F0E08491882399F0D1
:1000F00090E0880F991FFC01EA57FF4FA591B4913A
:10010000FC01E458FF4F859194918FB7F894EC91DE
:10011000E22BEC938FBF08951F920F920FB60F92B0
:1001200011242F933F938F939F93AF93BF9380910D
:10013000090190910A01A0910B01B0910C0130913D
:10014000080123E0230F2D3720F40196A11DB11DD6
:1001500005C026E8230F0296A11DB11D20930801BA
:100160008093090190930A01A0930B01B0930C01B5
:100170008091040190910501A0910601B0910701C1
:100180000196A11DB11D8093040190930501A093D8
:100190000601B0930701BF91AF919F918F913F915D
:1001A0002F910F900FBE0F901F9018951F920F92D6
:1001B0000FB60F9211240F931F932F933F934F93DA
:1001C0005F936F937F938F939F93AF93BF93EF93BF
:1001D000FF93CF93DF93CDB7DEB72A97DEBFCDBFB6
:1001E0002091780030E03093030120930201909138
:1001F0007900892F90E0982F8827909301018093B0
:1002000000014AE08E010F5F1F4FB801820F931F5C
:100210000E94AB02D801F80101900020E9F7319764
:10022000E01BF10BCD01801B910B8E179F0750F443
:100230008D918093C6008FE39FE10197F1F700C095
:100240000000E9CF8AE08093C6008FE39FE1019729
:10025000F1F700C000002A960FB6F894DEBF0FBE7B
:10026000CDBFDF91CF91FF91EF91BF91AF919F9162
:100270008F917F916F915F914F913F912F911F913E
:100280000F910F900FBE0F901F901895789484B522
:10029000826084BD84B5816084BD85B5826085BD82
:1002A00085B5816085BD80916E00816080936E0010
:1002B0001092810080918100826080938100809102
:1002C00081008160809381008091800081608093B3
:1002D00080008091B10084608093B1008091B00073
:1002E00081608093B00080917A00846080937A006E
:1002F00080917A00826080937A0080917A00816098
:1003000080937A0080917A00806880937A001092BE
:10031000C1008091640081708093640080917A00B4
:10032000806880937A0080917C008F7D80937C0030
:1003300080917A00846080937A0080917A008D7F2A
:1003400080937A0080917A008E7F80937A008091EA
:100350007C008F7780937C0080917C008064809308
:100360007C0080917A00806280937A0080917C008A
:100370008D7F80937C0080917C008E7F80937C00B9
:1003800080917C008B7F80937C0080917C00877FB4
:1003900080937C0080917B00846080937B008091BF
:1003A0007B008D7F80937B0080917B008E7F80938C
:1003B0007B00789480917A00886080937A0087E649
:1003C0008093C4001092C5008091C1008860809322
:1003D000C1008091C1008B7F8093C1008091C200D9
:1003E0008F7B8093C2008091C2008F778093C20080
:1003F0008091C2008F7E8093C2008091C2008F7D69
:100400008093C2008091C20084608093C20080917A
:10041000C20082608093C2008091C200877F809377
:10042000C2000E947000CDE6D0E001E110E049EA90
:10043000E42E40E0F42E55E9C52E50E0D52E61E1C2
:10044000962E70E0A72E70E0B72E0E947000FE017D
:1004500084918330F9F048F48130B9F08230A1F50D
:1004600084B5806284BD98BC6FC08730E9F0883065
:1004700019F1843049F5809180008062809380007A
:1004800010938B0000938A005FC084B5806884BDA0
:1004900097BC5AC080918000806880938000109340
:1004A00089000093880050C08091B00080688093DC
:1004B000B0009092B30048C08091B00080628093F9
:1004C000B0009092B40040C0FE019491F7012491D5
:1004D000F60184918823C1F1992339F1933091F089
:1004E00038F49130A9F0923001F594B59F7D12C097
:1004F000973091F09830A1F09430B9F49091800049
:100500009F7D03C0909180009F77909380000DC0E5
:1005100094B59F7794BD09C09091B0009F7703C0B8
:100520009091B0009F7D9093B00090E0880F991F4C
:1005300084589F4FFC01A591B4918FB7F8949C917A
:10054000209529232C938FBFA114B10409F47DCFEA
:100550000E9400007ACFBB274A3031F4992322F45D
:10056000BDE2909581959F4F0C94B702BB27FB018C
:100570005527AA27880F991FAA1FA41710F0A41B9C
:1005800083955051B9F7A05DAA3308F0A95DA193F6
:10059000009779F7B111B1931192CB010C94D0026D
:1005A000DC01FC01672F71917723E1F7329704C0DA
:1005B0007C916D9370836291AE17BF07C8F3089565
:0405C000F894FFCFDD
:00000001FF
